:100000000C9436000C9440000C9440000C9440007A
:100010000C9440000C9440000C9440000C94400060
:100020000C9440000C9440000C9440000C94400050
:100030000C9440000C9440000C9440000C94400040
:100040000C9440000C9440000C9440000C94400030
:100050000C9440000C9440000C9440000C94400020
:100060000C9440000C9440000C94400011241FBEDE
:10007000CFEFD4E0DEBFCDBF0E9447000C945A0002
:100080000C9400008AB188618AB91BB808950E9457
:10009000420080E0882311F05C9A01C05C98809552
:1000A0002FE734E89EE1215030409040E1F700C056
:0800B0000000F0CFF894FFCF2F
:00000001FF
